:020000040800F2
:1050000000500020B9770008DD6E0008DF6E000850
:10501000E16E0008E36E0008E56E00080000000085
:10502000000000000000000000000000E76E000823
:10503000E96E000800000000EB6E0008ED6E00084D
:105040000978000809780008097800080571000847
:105050000978000809780008416F0008616F0008AE
:10506000816F0008B56F0008D56F00080978000847
:1050700009780008097800080978000861710008BB
:105080000978000809780008F16E0008097800081E
:10509000657100080978000809780008F56F0008B4
:1050A000097800080978000809780008BD70000830
:1050B000097800080978000809780008116F0008CD
:1050C000216F00080978000809780008316F00088E
:1050D0000978000809780008016F000809780008BD
:1050E00045700008217100080978000800000000E0
:1050F00000000000000000000000000000000000B0
:0C51000000000000000000005FF808F153
:1051100070B5012188B0044601F006FBA0F130050E
:10512000072D37D803226846214601F025FB1C498C
:1051300004A801F07FFA204604A901F0E3FA06462C
:1051400004A801F035FA1EB1ADB22846002110E0E6
:10515000144904A801F06EFA204604A901F0D2FA1D
:10516000044604A801F024FA74B10A35ADB2284609
:10517000314600F04BFE684601F005FBC1B22846FF
:1051800000F0E0FF012401E04FF0FF34684601F039
:105190000FFA01E04FF0FF34204608B070BD00BFA9
:1051A000A04A0108A24A01087FB50121054601F085
:1051B000BBFAA0F13004072C02D94FF0FF3023E0F6
:1051C0001249684601F036FA2846694601F09AFA13
:1051D0000646684601F0ECF976B90D49684601F0DB
:1051E00029FA2846694601F08DFA0546684601F01D
:1051F000DFF9002DE1D00A34A4B22046012100F0ED
:1052000005FE204600F044FF04B070BDA04A01082E
:10521000A24A0108F0B5012185B0044601F084FAE4
:10522000A0F13006072E02D94FF0FF3049E0684662
:1052300021460322072301F079FA6846224901F04A
:1052400037FA0546684601F0B3F97DB9684621464C
:105250000322062301F06AFA68461C4901F028FA85
:105260000746684601F0A4F90FB9DDE701251849A2
:10527000684601F0DFF92046694601F043FA074627
:10528000684601F095F91FB1B6B23046002111E031
:105290001049684601F0CEF92046694601F032FA1D
:1052A0000446684601F084F9002CBDD00A36B6B237
:1052B0003046394600F0AAFD3046294600F02AFE65
:1052C000012005B0F0BD00BFA44A0108A94A0108A9
:1052D000A04A0108A24A01087FB50121054601F054
:1052E00023FAA0F13004072C02D94FF0FF3023E05D
:1052F0001249684601F09EF92846694601F002FA13
:105300000646684601F054F976B90D49684601F041
:1053100091F92846694601F0F5F90546684601F01D
:1053200047F9002DE1D00A34A4B22046032100F051
:105330006DFD204600F036FE04B070BDA04A0108A5
:10534000A24A010808B50948094900F09FFB09482D
:10535000094900F09BFB0948094900F097FB0948FF
:105360000949BDE8084000F091BB00BFAD4A010803
:10537000D9520008B94A010815520008C64A010866
:10538000A9510008D14A01081151000870470000D6
:1053900007B5002100910A460B46024801F054F877
:1053A0000EBD00BF180B002010B501310023934241
:1053B0000ED0040F092C01D8303400E0373401F846
:1053C000014C01330024000101F8024BDBB2EEE78F
:1053D00010BD000038B54FF000604FF4A04105F05B
:1053E000B5FB0124364B374821461C7005F09AFE68
:1053F00004F022FD04F0E0F92146402005F038FFDA
:105400006FF07F4004F02CFBE72004F099FB2E485E
:10541000047004F00FFA04F0D7FF05F063F92B488D
:1054200001F0B8FB01F06AFC29490A786AB3294DFA
:105430002C78CCB900F018FC002811D002DA4FF417
:105440007F0007E0012801D1234803E0022803D1AF
:105450004FF0FF1004F004FBE72004F071FB03E0C1
:105460001E4801232B70037000F0C2FB68B91C4971
:105470000A780AB104F08AFB1A4C134B15481449F8
:10548000002525701D7005700D70124A1578002DCD
:10549000C8D0144C2378002BC4D113480578002DB4
:1054A000C0D10E4C217821B1104A12B1FFF74AFF4A
:1054B00025700F4B0BB1FFF769FF00F08DFCB1E7D2
:1054C0000A1A00200004300087190020FD5B000844
:1054D00084190020851900200060FF00200B0020A7
:1054E000041A002086190020C42300204553000818
:1054F0008D530008484B49495A6870B5501C586094
:105500000C6814B10B685A1E0A604548017829B12D
:1055100044480178E1B1444C34BB19E0434C236862
:1055200013B12268511E12E0414A107880B94149F6
:105530000B786BB9404A107850B9404E404D3178E5
:10554000B9B1E72004F078FB2B7883B114212160F6
:10555000374B1C78002C34D1204604F0B7FC40F6C1
:10556000B73290421BD82CE000F090FBF0E701210D
:10557000EDE72B784BB14FF6FF7004F071FA012480
:10558000E72004F0DDFA3470E2E7E72004F022FBC4
:105590002C4A107808B13221D9E76421D7E7204698
:1055A00004F09CFC284A1178C1B9284803782BB133
:1055B000244A2348117803780B4216D001201C4B53
:1055C0000BE0002004F082FC41F65731884205D9F7
:1055D000002004F083FC1E4B012018701A4A127838
:1055E000C2B91749087818B970BD00F0B7FBE5E7F4
:1055F000184B47F22F511868884207D91A60064B9A
:10560000197839B9BDE8704000F0A8BB1A68501C81
:10561000186070BD70BD00BF200B0020D02300209B
:10562000041A0020B00E00208D5C0008C823002062
:10563000821900208619002088190020871900206F
:1056400085190020841900209B190020831900204F
:10565000911900208C19002008B5064B186004F041
:105660005DFE04F071FE04F08FFEBDE8084006F018
:10567000E5BC00BFD4010020074B1868052808D1FD
:1056800006490A7A012A04D1887A0B7BC11AC8B26A
:1056900070470020704700BF241A0020200B002014
:1056A0000D4B10B51868052813D10C4C217A01292F
:1056B0000FD16289A389D01A012804D100210320C7
:1056C000217206F026FEA389E218591C907BA18165
:1056D00010BD4FF0FF3010BD241A0020200B002019
:1056E000084B196805290BD1074B1A6D991881F8D9
:1056F0005400501CB0F5807F186501D100221A6556
:10570000704700BF241A0020200B002070B5234AE8
:1057100092F85431012B3FD0D2F85801B0F5807F78
:1057200002D10021C2F85811D2F85831126D1B482D
:10573000934203D1002180F8541170BD8CBFC3F592
:105740008072C3EB0202154CC0F85C21D4F85C51A6
:1057500099B2402D07D94033403DC4F85831C4F8C0
:105760005C51402606E0E8180023AEB2C4F85801A8
:10577000C4F85C310A4A01255018C021324684F829
:10578000545106F03DFD2846314606F043FE2846BA
:10579000BDE8704006F0ACBD70BD00BF200B00201E
:1057A000740B0020094B10B593E8140008331868F7
:1057B00010180AD008220649FFF7F6FD05492046D1
:1057C0000422BDE81040FFF7EFBD10BDE8F7FF1F52
:1057D000830100209301002038B50D460446AC42F9
:1057E00003D254F8043B9847F9E738BD08B5074899
:1057F0000749FFF7F1FF07480749FFF7EDFF0748A3
:105800000749BDE80840FFF7E7BF00BF504E010859
:10581000504E0108504E0108984E0108984E01085C
:10582000984E0108FEE70000054A08B513680549CF
:1058300018188842106001D90BF0C4F8184608BD4A
:1058400000000020004800204FF0FF30704701208A
:1058500070470000014B1868704700BF800C0020A3
:10586000064B0246582000FB013101F1080303CB2F
:105870001060516018689060704700BF800C002075
:10588000014BD3F864017047800C0020064B0246A0
:10589000142000FB013101F5B67303CB1060516099
:1058A00018689060704700BF800C00200E4B2DE9F7
:1058B000F041D3F8647180460024BC4211DA14250B
:1058C0006543094E4146701900F5B6700C220CF084
:1058D000C3FA20B97519D5F86801BDE8F081013423
:1058E000EBE70020BDE8F081800C00202DE9F047B7
:1058F00088B0814668460D4600F09CFE1E4B002491
:10590000D3F800A054452DDA55B3582666431A4FF4
:10591000494607F1040808EB060004300C220CF09D
:105920009BFAE8B928460CF067FA06F11001402806
:1059300034BF0246402208EB010029460BF06EFC02
:10594000BE19012286F85820694604A8746800F040
:1059500093FE04A8A047044604A800F029FE03E033
:105960000134CFE74FF0FF34684600F021FE2046B7
:1059700008B0BDE8F08700BF800C002038B50546B0
:10598000064C28B104F01EF9012384F8303238BDEA
:1059900004F0FCF884F8305238BD00BF800C0020C1
:1059A000024B00221A7004F0D3BD00BF86190020FC
:1059B000034B01224FF4C0201A7004F065BD00BFF4
:1059C000861900202DE9F341264B074618788846B2
:1059D00018B925490D782E4615B14FF0FF303FE03C
:1059E000224C0120D4F8343284F8385203F01F01DD
:1059F00000FA01F05A0984F8395284F83A5284F8CE
:105A00003B5204EB8202D2F83812C4F83C520143F4
:105A1000C2F8381204F50F7041F28832C4F84022FF
:105A200004F50E7100902A46581C2B4603F060F8CE
:105A3000002815DDD4F83432590904EB8104D4F878
:105A4000384203F01F0244FA02F414F0010007D0B8
:105A5000184639463346424603F0E2F8044B1E60CE
:105A6000BDE8FC819A1900209B190020800C0020C1
:105A70008C1900200A4604490346D1F8340219461D
:105A8000002303F045B900BF800C00202DE9F84F3A
:105A900004468946002941D000283FD0204B1D688C
:105AA000042D3BD00027AF421E4E4FF058080FDAAE
:105AB00008FB07F856F80810494507D106EB08021D
:105AC000101D21460C220CF0C7F938B30137EAE764
:105AD00008FB05F8A6F1040A0AEB080708F1100014
:105AE000C7F804900021402230180BF01DFD06EB92
:105AF0000801081D0C2200210BF016FD20686168CA
:105B000007F1080203C2A3680020013507F1040B66
:105B100087F858001360543746F8045CBDE8F88FE6
:105B2000800C0020840C002030B51E48ADF5797D36
:105B300006F002FD002832D11B4B1C481C4D04937B
:105B40001C491D4A1D4B059009951D481D4D069188
:105B500007920A931C491D4A1D4B0B900E951D4838
:105B60001D4D1E4C0C910D921D491E4A0F931E4B4C
:105B70001090139515A85FAD11911292149308948B
:105B800003900CAC029504F0F5FC284604F0F8FCF8
:105B900000940448154902AA04AB06F0D4FC0DF5A4
:105BA000797D30BDC00F0020755A0008C559000826
:105BB000D5A40008B1590008A15900087D59000872
:105BC000BD620008ED5800085558000861580008EB
:105BD000815800088D5800088DA50008B1A500085F
:105BE000BD5D0008AD580008A1A50008E8F7FF1F3B
:105BF000014807F09FBA00BFC00F002030B5022057
:105C000011228DB0014602F0F3FE051E28DB154976
:105C100007A806F0A3FD022316200024ADF80C30DF
:105C20008DF80E003321E0220123BB208DF81140B6
:105C30008DF80F108DF810208DF812308DF81300AC
:105C40000324102203A90091019200231322284665
:105C500007A903F067F8013CF3D1284602F0F6FEED
:105C60000DB030BDE8F7FF1F10B5074CFFF75CFF24
:105C7000204606F064FC204606F0B8FF0446FFF715
:105C8000BDFF204610BD00BFC00F002038B5114C2D
:105C9000D4F8505B2DB1D4F8501B4B1EC4F8503BC8
:105CA00038BDD4F8543B0C4A52F8230003F0FEFEF2
:105CB000E72003F045FF094A6420D4F8541BC4F8D8
:105CC000500B10684B1C8342C4F8543BA8BFC4F867
:105CD000545B38BD800C0020C42001080400002063
:105CE00010B5054CD4F8340202F0B0FE18B94FF0EC
:105CF000FF33C4F8343210BD800C002008B5FFF724
:105D0000EFFF02200121062202F072FE114B002853
:105D1000C3F834021ADB0221A3F8581B33211622E0
:105D200083F85B1BD02183F85A2B83F85D1B362246
:105D3000042183F85C2B83F85F1BE522064983F876
:105D40005E2B1022BDE8084002F0A6BE4FF0FF30E7
:105D500008BD00BF800C0020D8170020044B012292
:105D600000205A801880D886024B1A70704700BFF6
:105D7000541B00209A1900200F4B2DE9F041D3F855
:105D8000647180460024BC4211DA142565430A4E32
:105D90004146701900F5B6700C220CF05DF820B980
:105DA000751995F87801BDE8F0810134EBE74FF003
:105DB000FF30BDE8F08100BF800C002008B5FFF780
:105DC000DBFF0138082803D8024B1918087F08BDEB
:105DD000022008BDC4200108084B0022D3F8481255
:105DE00003F513738A4208DA93F8500010B10020CB
:105DF00083F8500001325133F4E77047800C0020E3
:105E0000014806F089BB00BFC00F002014282DE90F
:105E1000F34104460E4675D8FF2973D000F0A8FB65
:105E200028B10D2C6ED00F2C6CD00E2C6AD000F047
:105E3000BDFA08B1012C65D900F0FEFC18B1A4F13F
:105E40001203012B5ED9304D20012F582F492A18FB
:105E50008F42B2F8048001D1042003E02C4B9F4212
:105E600003D10820012105F00FFAADF80480062EB9
:105E700044D8DFE806F00411181F26313C00224AFE
:105E8000102302EB041403200021A1738DF80730C6
:105E90008DF80600083431E004218DF8071005EB79
:105EA0000414012229E048228DF8072005EB041490
:105EB000022222E028208DF8070005EB04140322BB
:105EC0001BE0114B182203218DF807208DF80610D6
:105ED00003EB0414042210E00B481C2103238DF86B
:105EE00007108DF8063000EB0414052205E00020B1
:105EF0008DF8070005EB04140622A273384601A9A9
:105F000005F0B6F8BDE8FC8114000020000801404F
:105F1000000C0140142870B504460E463ED8204BB4
:105F200003EB0010817B012938D0022936D00329E8
:105F300034D0062932D0FF2930D000F019FB30B11F
:105F40000D2C2BD00F2C29D00E2C00D170BD00F0C1
:105F50002DFA10B1012C00D870BD00F06DFC20B1FD
:105F6000A4F11202012A00D870BD0D4D05EB0413F7
:105F7000987B042803D120460021FFF747FF012E1C
:105F800005D124012819295983880B6170BD2EB9C8
:105F9000240129192B598A885A6170BD70BD00BF30
:105FA00014000020142810B5044602D94FF0FF3029
:105FB00010BD1A4B03EB0010817B0029F6D0FF299E
:105FC000F4D000F0D5FA28B10D2CEFD00F2CEDD085
:105FD0000E2CEBD000F0EAF908B1012CE6D900F064
:105FE0002BFC18B1A4F11202012ADFD90B4B03EBF1
:105FF0000410817B062908D193F850114A1ED3B2B0
:10600000FD2BD3D82046FFF701FF044824010119D6
:106010008988005905F07CF810BD00BF14000020ED
:1060200010B54FF4004086B005F0FAF801214FF4A6
:10603000007005F029F9154804F092FD01240023B1
:106040004FF46022114801A901938DF808308DF8B2
:106050000930039204938DF8144004F0AFFD0B480F
:10606000214604F0CFFD094804F0D5FD074804F0AF
:10607000D7FD0028FAD1054804F0D6FD034804F006
:10608000D8FD0028FAD106B010BD00BF00240140A1
:10609000092838B5044601D80A34A4B200F068FAD9
:1060A00040B10D2C02D14FF0FF3038BD0F2CFAD08B
:1060B0000E2CF8D000F07AF900F0BEFB18B1A4F174
:1060C0001203012BEFD9142CEDD81C4D05EB041055
:1060D0008279FF2AE7D095F85111914206D0837B4F
:1060E0000621204685F85031FFF790FE95F8525171
:1060F000012D05D1FFF794FF104A002082F85201CC
:106100000E4D05EB0414A17995F851318B4207D05F
:106110000B480122002304F099FDA17985F8511163
:106120000748012104F089FD0548022104F0DEFD45
:106130000028F9D0024804F0D6FD38BD1400002034
:10614000002401402DE9F041142888B004460D4692
:1061500000F2A780544B03EB00108168002900F087
:10616000A08000F005FA40B10D2C00F09A800F2CB1
:1061700000F097800E2C00F0948000F017F910B119
:10618000012C40F28E8000F057FB20B1A4F11202E6
:10619000012A40F28680444B03EB0410817B09B155
:1061A00004297ED1414E424A37684BF6803169431B
:1061B000B7FBF2F3581EFF2586B2012091FBF5F7DD
:1061C000014605F061F804212046FFF71FFE364A1C
:1061D000BFB202EB04139968B1F1804F02D10120E4
:1061E000014608E0334D0220A94203D032488142E3
:1061F00003D10420012105F053F82B4B4BF67F32DD
:1062000003EB0415ADF80460A868002601A9ADF8F9
:106210000A60ADF80660ADF8082005F015F9ADF894
:106220001860AE896021012005F10808ADF8101052
:10623000ADF81200ADF8167046B9A86804A905F0CB
:106240004DF9A868082105F089FA1FE0042E08D14D
:10625000A86804A905F086F9A868082105F086FA5F
:1062600014E0082E08D1A86804A905F0BFF9A868B1
:10627000314605F085FA09E00C2E07D1A86804A97B
:1062800005F0F6F9A868082105F082FA064A01210E
:1062900002EB0414A06805F055FAA068012105F08E
:1062A0002EFA08B0BDE8F08114000020BC020020E6
:1062B00000366E010004004000080040014B1868E1
:1062C000704700BF240B002007B5002100910A464B
:1062D0000B46024800F0B8F80EBD00BFF4170020CE
:1062E000024B18785978401A704700BFFC170020FD
:1062F000064B5A781978914204D99818013280785F
:106300005A7070474FF0FF30704700BFFC170020F5
:10631000054B5A781978914202D9981880787047BD
:106320004FF0FF30704700BFFC170020704700009F
:10633000F8B5094B054693F82200164650B10C46B5
:106340008F18BC4206D0296828460A6814F8011B39
:106350009047F6E73046F8BDFC17002010B50C4B0F
:10636000012293F822408CB193F823401F2C02D9CC
:106370004260002010BD93F824001C1884F82510FA
:10638000411CC8B283F8240083F82300104610BDD6
:10639000FC17002000224260024A4FF47A718160AB
:1063A00002607047F820010870477047014B93F86E
:1063B00059007047FC17002013B5084C00210091CC
:1063C00004F164000A460B4600F03EF804F16C004C
:1063D00002B0BDE81040FFF7DDBF00BFFC17002092
:1063E00008B5034B53F8200000B1804708BD00BF3B
:1063F0007818002007B5002100910A460B46024894
:1064000000F022F80EBD00BFB81800202DE9F041C1
:10641000002407460E4625463B1919790A223046C4
:1064200000F08CF82E218046304600F055F80134FB
:106430004044032C0544EFD13046F9790A2200F09C
:106440007DF82818BDE8F08130B58371044D9DF8C2
:106450000C300446056001714271C37130BD00BF4C
:1064600018210108044B054A00201A601871587160
:106470009871D871704700BFC0180020182101081A
:1064800007B5002100910A460B460248FFF7DCFFE2
:106490000EBD00BFC8180020F8B506460C468F1880
:1064A0000025BC4207D0336830461A6814F8011B37
:1064B00090472D18F5E72846F8BD38B505460C4637
:1064C000084641B10BF098FC2B6802465B682846F1
:1064D0002146984738BD38BD08B503681A6890470B
:1064E00008BD70B500238AB08DF82430012A98BF0A
:1064F0000A220DF12303B1FBF2F505FB1211CCB218
:10650000092C1E4601D8303400E03734E4B203F8D9
:1065100001492946002DEED13146FFF7CEFF0AB0E2
:1065200070BD10B5044622B90268C9B2126890471E
:1065300010BDD2B2BDE81040FFF7D3BFFFF7F1BFE7
:1065400007B5002100910A460B460248FFF77CFF81
:106550000EBD00BFD418002007B5002100910A46E7
:106560000B460248FFF770FF0EBD00BFDC1800208D
:10657000014B587D704700BFE418002070470000B1
:1065800007B5002100910A460B460248FFF75CFF61
:106590000EBD00BFFC18002007B5002100910A467F
:1065A0000B460248FFF750FF0EBD00BF0819002040
:1065B00010B5044600680AF035FB204610BD10B542
:1065C0000446006808B10AF02DFB00232360A36095
:1065D000636010BD38B504460D46006801310BF00C
:1065E00061F810B184E82100012038BD036810B5BE
:1065F000044613B14068884207D22046FFF7EAFFFD
:1066000020B1A16809B922681170012010BD70B5D0
:106610000E46114604461546FFF7E8FF18B9204616
:10662000FFF7CDFF04E0A560206831460BF086FB44
:10663000204670BD38B50023044603604360836084
:1066400003730D4639B108460BF0D6FB29460246C6
:106650002046FFF7DCFF204638BD884210B50B46C8
:10666000044607D0096819B19A68FFF7D0FF01E026
:10667000FFF7A5FF204610BD002310B504460360B8
:10668000436083600373FFF7E8FF204610BD38B511
:1066900005460C4641B108460BF0AEFB21460246CA
:1066A0002846FFF7B4FF01E0FFF789FF284638BD11
:1066B000826808B50B4612B919B9012008BD11B995
:1066C0000368187802E000680BF04AFAD0F1010084
:1066D00038BF002008BD10B58B688468E41AA24258
:1066E0000CD8006868B1096851B180181A460BF0DF
:1066F000B3FBD0F1010038BF002010BD002010BD59
:10670000084610BD82688B689A4202D30022FFF7C8
:10671000E2BF002070478368994203D2006810B13D
:10672000405C704700207047FFF7F5BF9A422DE9A3
:10673000F04107460D4614461E4601D9344616461A
:1067400038460C49FFF776FFA86884420FD82968BD
:10675000864228BF0646002211F806808A552B681B
:1067600038461919FFF793FF286800F80680384665
:10677000BDE8F081944C010810B58B680446FFF722
:10678000D5FF204610BD006808B10AF023B9704754
:1067900007B5002100910A460B460248FFF754FE58
:1067A0000EBD00BF1019002007B5002100910A4658
:1067B0000B460248FFF748FE0EBD00BF1819002027
:1067C00007B5002100910A460B460248FFF73CFE40
:1067D0000EBD00BF201900204FF0FF3070477047FA
:1067E00008B5054804F0EDFF0348802104F0F1FFEF
:1067F0000028F9D0012008BD00440040202108B540
:10680000034804F0E6FF003018BF012008BD00BFB8
:106810000044004008B5024804F0D7FF08BD00BF9F
:106820000044004000224260024A4FF47A718160C5
:106830000260704728210108014B187C704700BF97
:106840002819002013B5084C0021009104F1140010
:106850000A460B46FFF7F8FD04F11C0002B0BDE844
:106860001040FFF7DFBF00BF2819002070474FF02E
:10687000FF307047084608B5FEF732FF012008BD1B
:1068800008B5FEF7F9FE08BDFEF70ABF0022426018
:10689000024A4FF47A718160026070474821010812
:1068A0000846FEF7D9BE000013B5074C0021009141
:1068B00020460A460B46FFF7C7FD04F1080002B068
:1068C000BDE81040FFF7E2BF541900200023036029
:1068D0001846704700230360184670470023036082
:1068E000184670472DE9F04191F8008086B00C46BB
:1068F000B8F1000F14BF90464FF0000806460BF0A9
:106900007BFA074620460BF077FA012518231E2153
:1069100002220193029103920590002300950494B2
:10692000404631463A4602F03DFB034B18705D701D
:1069300006B0BDE8F08100BF6C19002048F20203E8
:10694000984210B517D008DC992844D0591E8842C7
:1069500045D123480122427110BD48F210029042F5
:1069600028D0703290423AD11D4801210023817015
:10697000C170037110BD1A4C627952B119480022DE
:1069800002704FF47F4003F06BF8E72003F0D8F873
:1069900006E0A07910B1431EA37101E00121A175A9
:1069A0000021217661716176E175A176E17621772A
:1069B000216210BD0A7D0A4852B90123C3754FF404
:1069C0007F4003F04DF8E720BDE8104003F0B8B871
:1069D0000021C17510BD024B012183F8241010BDA8
:1069E0006C190020041A00201FB54FF03C0C0A233C
:1069F0004FF461514FF461628DE80E10684601A9B1
:106A000002AA03AB01F032FB05B000BD1FB50023A5
:106A1000009301930293039301A8694602AA03AB72
:106A200001F0ECFA05B000BD30B5564D002497B02A
:106A3000FF202C76AC706C76EC70AC766C70EC76DB
:106A40006C71EC7585F824402C6203F009F8E7209E
:106A500003F076F821462246204602F07FFA2B46C4
:106A6000012103F8074F0E200A4601F083FB6B79E2
:106A7000012B05D1642002F0BBFE01F021F8F6E7FE
:106A800010210C2001F0C2FB3F4801F089FF3F4874
:106A900002F0D8FB012002F0B9FB68463C4900F047
:106AA00061FD384D6A78A87852EA00031ED195F846
:106AB0002540002C5CD0FF2002F05CFB002857D161
:106AC0001A24013C06D0E72003F084F8322002F0BB
:106AD0008FFEF6E72B4D0E202B4603F8064F0121C3
:106AE000224601F047FB85F82540DAE7E72003F06E
:106AF00027F801210E200022AB1D01F00DFBA97823
:106B000011B102F0BDFB28701E4C01212378002238
:106B10005D1C234603F8065F0E2001F02BFB0020CE
:106B20000146012202F01AFA012523462A4603F8FB
:106B3000075F29460E2001F01DFB02F095F9642045
:106B400002F056FE002002F043F948F2442084F897
:106B5000265002F029FB4FF47F4002F081FFE7202E
:106B600002F0EEFFFFF740FF0022A27517B030BD24
:106B7000E72003F02FF8FA2002F03AFE684600F012
:106B800053FD8EE76C190020602101086801002088
:106B9000E568000830B5384C85B0A06203F0EEFA25
:106BA00003F02EFA354B36483649374A00930190A8
:106BB000364B029103923649364A374802F0F4F8D0
:106BC000642002F015FE002002F002F900250123E6
:106BD00048F24420E57684F8263002F0E5FA2F48A2
:106BE0000188012906D00E2010212A46A31D01F09C
:106BF00093FAA8B1FF2002F0BDFA10210E2001F097
:106C000005FB0021264B0024CC5401311029F9D179
:106C100022460E2001F0AEFA204A148003F0F4FB65
:106C2000154C237993B9A07910B90121A1750DE014
:106C3000E07958B90146012202F090F9012123467A
:106C400003F8071F0E200A4601F094FA0A4B1A793E
:106C50000AB9987D30B94FF47F4002F001FFE72078
:106C600002F06EFF0F4801F0B7FAFFF7CFFE05B054
:106C7000BDE83040FFF7B8BE6C190020B9A000088D
:106C8000CDA0000839A1000861A10008DD68000856
:106C9000CD680008D56800083D690008AE020020F4
:106CA000721900209819002030B502200121062217
:106CB00085B001F09DFE051E1ADB00213522082457
:106CC00002238DF802108DF80320694610228DF8FA
:106CD00004408DF805408DF806408DF80740ADF86A
:106CE000003001F0D9FE0446284601F0AFFE01E075
:106CF0004FF0FF34204605B030BD0000F7B56C4CB6
:106D000094F82E202346002A51D194F82F00002811
:106D10004DD194F8260020B902F05AF8012184F8E8
:106D20002610634DA97D11B1FFF77EFE19E02A7987
:106D3000BAB1EC7DACB921462246204602F00EF9EC
:106D40005C480BF059F85C4E074630460BF054F89F
:106D500000960190711F03203A46234602F09AF8EC
:106D60002C71534BD878012814D1D97D012911D128
:106D70005A79012A0ED1032450480BF03DF8013C0A
:106D800082B24E49012001F0D9FF14F0FF04F3D183
:106D9000474BDC70464CE07D002800F0878094F87B
:106DA0002F10002940F08280227E7AB37EE093F893
:106DB0002650002DB5D0424C22780AB102F0E6FEF2
:106DC0003B4C0025284684F82E50657184F82650E7
:106DD000E57525766576A576E5762577256203F057
:106DE000BFF9642002F004FDA37D3BB1284601F009
:106DF000EFFF012084F82600FFF716FE4FF47F40D6
:106E000002F02EFEE72002F09BFE8AE7642002F0EB
:106E1000EFFC04F1300001F06DF9247F0CB34FF466
:106E20007F0002F01DFE224C207F90B1E72002F08F
:106E300087FE4FF4FA7002F0DBFCE72002F0AEFEB2
:106E40004FF4FA7002F0D4FC237F591ECAB22277A5
:106E5000E9E7234603F8090F01210E20032201F080
:106E600089F94FF6FF7002F0FBFDE72002F068FEA3
:106E7000FEF744FF00280E4C16DA94F82E10A9B93C
:106E8000FFF712FF002801DA022200E00322227736
:106E9000074C0121207F234603F8090F03220E200F
:106EA00001F068F9002300E001232376FEBD00BF56
:106EB0006C1900206B010020700100207901002076
:106EC000041A002007B5002100910A460B4602482B
:106ED000FFF7BAFA0EBD00BFD81900207047FEE7D1
:106EE000FEE7FEE7FEE7704770477047FEF702BB1C
:106EF00008B5024B0BB1AFF3008008BD00000000E5
:106F000008B5024B0BB1AFF3008008BD00000000D4
:106F100008B5024B0BB1FFF747FA08BDA96300089B
:106F200008B5024B0BB1FFF740FA08BDAB63000890
:106F300008B5024B0BB1FFF721FB08BD7D650008CA
:106F400008B5012004F004F838B1012004F010F86D
:106F5000024B13B10020FFF743FA08BDE1630008BC
:106F600008B5022003F0F4FF38B1022004F000F865
:106F7000024B13B10120FFF733FA08BDE1630008AB
:106F800008B5042003F0E4FF78B1042003F0F0FF1B
:106F90000020064B0146188002F0DCFE0448102158
:106FA0000122BDE8084004F0C4BB08BD061A002059
:106FB000002C014008B5082003F0CAFF38B10820B2
:106FC00003F0D6FF024B13B10320FFF709FA08BD07
:106FD000E163000808B5102003F0BAFF38B11020B3
:106FE00003F0C6FF024B13B10420FFF7F9F908BD07
:106FF000E163000808B5202003F0AAFF38B1202083
:1070000003F0B6FF0E4B13B10520FFF7E9F940205E
:1070100003F09EFF38B1402003F0AAFF084810B1EA
:107020000620FFF7DDF9802003F092FF38B18020C1
:1070300003F09EFF024911B10720FFF7D1F908BD07
:10704000E163000808B54FF4005003F081FF40B140
:107050004FF4005003F08CFF174B13B10D20FFF7D6
:10706000BFF94FF4804003F073FF40B14FF480400C
:1070700003F07EFF104810B10E20FFF7B1F94FF476
:10708000004003F065FF40B14FF4004003F070FF93
:10709000094911B10F20FFF7A3F94FF4006003F085
:1070A00057FF38B14FF4006003F062FFBDE80840BD
:1070B00002F038BB08BD00BFE163000808B50F4807
:1070C000102104F06FFBC0B10C48102104F075FBD7
:1070D000002002F0EBFE28B9094B1A880A3290B260
:1070E000188008BD10210548002204F022FB002072
:1070F0000121BDE8084002F02DBE08BD002C014072
:10710000061A002008B5012004F042F930B1012030
:1071100004F050F9BDE8084004F01EB908BD0000B5
:1071200008B5022004F034F9B0B10C4B00224FF442
:1071300000301A7003F01CFF012004F059F810B160
:10714000012004F05FF804F007F9022004F032F99E
:10715000BDE8084004F000B908BD00BF9B1900203D
:1071600002F06EBA00F062B838B514490B78012B02
:1071700023D1134A13680BB90B7038BD114C402B47
:10718000206881B205D94030403B20601360402523
:1071900004E09DB2C3180020236010600A4A501812
:1071A000C0212A4605F02CF80120294605F032F9C5
:1071B0000120BDE8384005F09BB838BD740C0020B4
:1071C0007C0C0020780C0020740B0020094908B5C5
:1071D0000020094B0122088003201A7005F046F9AF
:1071E000064B0246188006484FF48871BDE80840F7
:1071F00005F01DB82C0B0020280B00202A0B0020C6
:107200002E0B0020074B1868052809D1064B1A6879
:10721000511C052A196003D100201860FEF776BAC8
:10722000704700BF241A0020E01900203A4A38B500
:1072300011683A4B88B23A4D18801C882988214041
:1072400001F4007084B244B14FF6FF5515609A788E
:10725000511CC8B29870FFF7D5FF304C304B2588D1
:107260001A882A4002F4004188B225461C4608B11B
:1072700004F000FF2A882388134003F4806188B259
:1072800030B1254B27494FF6FF321A6048688047D6
:10729000224A234B11881B88194001F4005081B207
:1072A00019B11D494DF6FF7008601288134003F4B0
:1072B000805398B230B1184A4EF6FF711160002029
:1072C00003F0C2FB154B164918880A88024002F4E5
:1072D000006398B260B114490A7812B103F094FBCC
:1072E00002E0022003F0B0FB0B4B4FF2FF7018607E
:1072F0000A490B480A880388134003F480718AB254
:1073000042B1054B4FF6FF6018600720BDE83840DA
:1073100003F09ABB38BD00BF445C0040E419002074
:10732000182400200C020020D0020020034B987A81
:1073300010B1034905220A60704700BFF423002002
:10734000241A0020014B04221A607047241A0020DE
:10735000034B1A78202A01D100201870704700BF13
:10736000E819002070470000212810B508D1114805
:107370000368197801F07F02212A11D0022010BD84
:107380002028FBD10B4B19680A780B4902F07F03C8
:107390000A4A212B0CBF0B46002310700BB9EDE7F6
:1073A000074B044C206800248361448220469847A0
:1073B000204610BD1424002011740008E819002094
:1073C000F9730008074B19680A7802F07F03212B34
:1073D00005D1022801D1002070472228FBD00220CD
:1073E000704700BF1424002009B102207047012813
:1073F000FBD808467047000020B9034B08221968E3
:107400000A8270470148704714240020D4010020EC
:1074100020B9034B082219680A8270470148704757
:1074200014240020D4010020054B1968CA78042ACE
:1074300004D8044B03EBC20104F09CBB002070474E
:1074400014240020DC010020014904F093BB00BF9C
:10745000FC010020014904F08DBB00BF04020020A4
:10746000334A344BD179186810B5002441728472C4
:10747000C472204604F0EEFE20464FF4007104F082
:10748000F1FE1021204604F0F9FE4021204604F0D0
:1074900095FF8021204604F081FF204604F04AFF3A
:1074A000254B204693F8641004F0C2FF204604F0F8
:1074B00030FF0120214604F0D5FE0120C02104F058
:1074C0006DFF0120202104F0D9FE0120214604F0A7
:1074D000F2FE02204FF4C06104F0C4FE02204FF41B
:1074E000807104F05BFF0220214604F0E4FE0220DC
:1074F000202104F0C3FE0320214604F0B3FE032044
:107500004FF4887104F05AFF0320402104F090FFEB
:1075100003204FF4405104F0CEFE0320214604F036
:10752000ADFE204604F038FD044A0120106010BD75
:10753000CD21010814240020D4010020241A0020A9
:1075400010B5FEF72FF9054B00241868847203F07C
:1075500043FA04F0A1FF02490C6010BD142400207E
:10756000241A002038B504460D46FFF78FF920464F
:1075700025614FF41651FFF793F9204638BD0000FE
:1075800007B5002100910A460B460248FEF75CFF52
:107590000EBD00BFEC19002070B506460D46002454
:1075A00028460AF029FC844208D2295D3046FFF7BC
:1075B00061F9012002F01CF90134F1E770BD00000F
:1075C0002DE9F84304460F4690460D46C7EB0509E2
:1075D0005FFA89F92046FFF753F90028FADD2046C3
:1075E000FFF752F9C145C6B206D100232B702046E1
:1075F0000C49FFF7D1FF0AE00D2EF6D00A2EF4D089
:1076000020463146FFF736F905F8016BDEE72046E4
:10761000FFF736F9002803DD2046FFF735F9F6E7D6
:10762000BDE8F883924C0108F0B585B00446FFF739
:1076300027F9002840F39D802046FFF725F9C0B2C6
:10764000772867D104F1140600212122304604F185
:10765000350509F069FF00212122284609F064FF61
:1076600004F15607002284F8562020467A704249D9
:10767000FFF792FF204631462022FFF7A1FF204668
:107680003E49FFF789FF394601222046FFF798FF60
:1076900094F85630A3F130010329F0D8312B0BD1E7
:1076A00020463749FFF778FF20463649FFF774FF39
:1076B00020463549FFF770FF94F85600B0F13007C7
:1076C00008D020463149FFF767FF2046294620228F
:1076D000FFF776FF20462E49FFF75EFF23693A4603
:1076E00030462946984720462A49FFF755FF20464D
:1076F0002949FFF751FF20462849FFF74DFF204653
:107700002749FFF749FF20462649FFF745FF204656
:10771000254929E069282CD1244A01AB1068516819
:10772000002503C39168204619602149FFF734FF03
:1077300001AEAE5D300900F13001392988BF00F19A
:10774000570106F00F062046FFF794F806F13001C6
:10775000392988BF06F1570120460135FFF78AF81D
:107760000C2DE5D11349204605B0BDE8F040FFF7E8
:1077700013BF05B0F0BD00BFE64A0108ED4A01089D
:107780001A4B0108504B01087B4B0108C14B010803
:10779000CC4B01080F4C01082F4C0108624C01082A
:1077A000954C0108D44C0108054D0108E8F7FF1F6E
:1077B0001B4D0108924C0108002100F004B80D4B4C
:1077C0005B58435004310C480C4B42189A42FFF46A
:1077D000F6AF0B4A00F003B8002342F8043B094B14
:1077E0009A42FFF4F9AF03F079F8FDF7FFFFFDF7D8
:1077F000F1FD7047984E010800000020180B002092
:10780000180B002024240020FFF7FEBF73B5447935
:107810000023022C01930FD0032C19D0012C2BD163
:10782000164D28692E4620B1296901A888470246CD
:10783000B8B9B16801201BE0104DE8682E4620B1B0
:10784000E96801A88847024658B9B16802200FE0EC
:107850000A4D6A692E464AB16B6901A898470246EB
:1078600020B1A9682046BDF8043003E0B1680320C8
:107870000022134600F05EFB7CBD00BF541B0020BD
:10788000072810B50CD801290AD8012404FA00F4FD
:1078900001FA00F0034B1A6822EA040202431A605C
:1078A00010BD00BF64020020F0B5012187B005467D
:1078B00004F010FE00F48043044698B250B3B4F5CF
:1078C000824F27D12846052104F004FE00260746F2
:1078D00007353446BE4208D02846022104F0FAFD9E
:1078E000013624180435B6B2F4E7744B188E21180B
:1078F0008AB21A86D86B2418DC63D96B9A6B9142D2
:1079000040F0CE8093F84000002800F0C9809B69C9
:10791000992033E024F4FF4121F07F0290B2002847
:1079200000F09B8048F2100294422AD00CD8B4F5A3
:10793000004F40F2C08048F202039C4217D9991CC4
:107940008C4240F0B88012E048F2800084420ED0B1
:1079500005D848F24002944240F0AD8051E0B4F5C1
:10796000024F04D0B4F5084F40F0A5806CE05349B5
:107970008869002800F094808B69204600210A461F
:1079800069E00023EA1851790DF803100133042B44
:10799000F8D1687A2B7BAA7AE97A8DF804008DF801
:1079A00007308DF805208DF8061005F10D00002335
:1079B00006AAD218C15C0133042B02F8101CF7D1BF
:1079C00005F11100002306AAD218C15C0133042B73
:1079D00002F80C1CF7D105F11500002300AAD218FB
:1079E000C15C0133042B1174F8D1344928798A69B8
:1079F0008DF81400002A53D08B6920466946152261
:107A000029E005350021284604F06BFD0421009093
:107A1000284604F066FD08210190284604F061FD27
:107A20000C210290284604F05CFD102103902846AA
:107A300004F057FD214B04909969002930D09B69CF
:107A400020466946142206E01C48826942B38369D5
:107A5000691D20460122984722E041F203039C421F
:107A600005D00C339C4202D0591E8C421AD16C1D99
:107A70000421204604F035FD39301CD12D790F4802
:107A80000021C562204604F02CFD04210546204655
:107A900004F027FD393003D128460121FFF7F0FE1D
:107AA000012009E0054A138899B28C4204D0B4F54C
:107AB000805FF5D100E0002007B0F0BD541B00202E
:107AC00038B50A4C638898B208B9002038BD6068A0
:107AD00001780429F9D1FFF7E7FE01280546F4D122
:107AE0000022628001F05AFC284638BD541B002059
:107AF0002DE9F0470446884691460025BC4B5A883C
:107B000090B20028FAD05E683178042940F0728182
:107B10003046012104F0DEFC05463046FFF7C4FE86
:107B2000002840F05C8141F20703771D9D4253D845
:107B30005A1E954280F0AC8040F20220854200F04F
:107B4000A78014D80C2D09D8082D80F0A180002D15
:107B500000F04581062D40F29B80DDE00D2D00F008
:107B6000948040F20127BD4240F039818DE041F21E
:107B70000202954218D8B5F5805F00F28980B5F50C
:107B8000017F40F2828040F207218D4240F0278140
:107B90003379002104F8013B384604F0A2FC014689
:107BA000204604F089FC1AE141F20400854200F00D
:107BB000898040F2A0803846002104F092FC042124
:107BC0002060384604F08DFC6060083406F10D0733
:107BD000224606F11D016EE041F21100854254D0AB
:107BE0002CD841F20B02954252D01CD841F2090127
:107BF0008D424DD000F28B800021384604F071FC9C
:107C000004212060384604F06CFC0821606038468E
:107C100004F067FC0C21A060384604F062FC04F11B
:107C20000C0AE060DAE041F20F00854263D035D8FB
:107C300041F20D02954240F0D28043E042F206014B
:107C40008D4222D008D8B5F5005F40F2C88042F2DC
:107C500004039D4219D983E042F208039D42C0F01B
:107C6000BE80581C854210D944F20B02954240F068
:107C7000B6807179DFF878A13846AAF83010012172
:107C800004F028FCAAF83200A9E037792770A6E0B2
:107C90003846002104F025FC2060A0E00021384691
:107CA00004F01FFCA2464AF8040B0421384604F0F5
:107CB00018FC606092E057F8043B8F4242F8043BA6
:107CC000F9D18CE00021384604F00BFC042120603F
:107CD000384604F006FC08216060384604F001FCD8
:107CE00004F1080AA060E46814F1390376D1012197
:107CF000FFF7C6FD72E00021384604F0F2FB0421D4
:107D00002060384604F0EDFB6060083467E03379AA
:107D100023713F68276062E03846002104F0E1FBF0
:107D200004212060384604F0DCFB082160603846FE
:107D300004F0D0FB0A21A060384604F0CBFBC4F865
:107D40000A000C3406F11107224606F1350157F8F6
:107D5000043B8F4242F8043BF9D1388810803EE062
:107D60000022B7187879A0540132042AF9D106F11B
:107D700009070023F95CE0180133042B0171F9D1E4
:107D800006F10D070020395C221801300428117219
:107D9000F9D106F111070023F95CE2180133042B35
:107DA0001173F9D106F115000022875CA118013288
:107DB000042A0F74F9D106F119000023C75CE118F9
:107DC0000133062B0F75F9D106F11F000021475C26
:107DD0006218013120299776F9D100E05446044B0E
:107DE000188882B2954225D10021198022E000BF77
:107DF000541B002030460321B77804F06BFB824609
:107E0000B8F1000F0CD00421701D04F06AFB03468A
:107E1000C9F8000006F115014046DAB209F0FEF992
:107E20007A1DB1182046C7EB0A0209F0F7F90F498D
:107E30000020C8860D4F00237B8001F0AFFA307818
:107E4000042805D1B5F5805F02D13046FFF7DEFC8E
:107E50003A8891B200297FF451AE044BD88E80B29B
:107E600000287FF44BAEBDE8F08700BF541B002014
:107E700007284FF0010308D803FA00F004490A6804
:107E800010420CBF0020012070471846704700BF09
:107E900064020020034B1880084600210A46FFF7C1
:107EA00027BE00BF541B002010B5034B0124DC8605
:107EB000BDE81040FFF71CBE541B002038B5034638
:107EC000154601224A710C46881D194604F0FDFA38
:107ED000291D0570204601F023FB002038BD38B570
:107EE000BDF814500C469B18A071E81885B2022109
:107EF0006171E271294604F1080004F0E6FA6A1D96
:107F0000204691B201F00CFB002038BD38B59B181B
:107F10000C469DB202216171A071E271294604F103
:107F2000080004F0D2FA6A1D204691B2BDE838403C
:107F300001F0F6BA2DE9F0471D4605F1020A0323C8
:107F400001F107091FFA8AFA88714B710C464846FD
:107F50005146174604F0B9FAB5F57A7F804613D832
:107F6000294604F0B2FA2946404604F0AEFA3946F2
:107F700004F10B002A4609F051F9A91D204689B2E7
:107F8000BDE8F04701F0CCBA4FF47A76B5FBF6F1D4
:107F90000AEB410291B204F098FA3146404604F0EF
:107FA00094FA394604F10B00324609F037F9A5F589
:107FB0007A75204640F2EE31ADB2BF1901F0B0FA49
:107FC000B5F57A7F05D9A5F57A7085B24FF47A7642
:107FD00001E02E460025A046394628F8056F4846A0
:107FE000324609F01BF9B31C404699B2BF1901F0A3
:107FF00097FA002DE4D1BDE8F0870000F7B51A4CE0
:108000001E46A468FF238DF807300025475D6319DD
:108010000135042D5F72F9D100200D5C2318013069
:1080200004285D73F9D10021505C631801310429E3
:108030005874F9D104F11500002104F03DFA002232
:10804000B35C83540132042AFAD12146142242F24D
:108050000100FFF733FF42F201000DF10701FFF7C6
:1080600019FF9DF90700FEBD541B00202DE9F341C7
:1080700006460C461E4831681546D0F808804A1E50
:108080001F46FF23122A8DF8073008F1090001D896
:108090001423336021684A1E122A01D81423236056
:1080A00029684A1E122A01D814232B6039684A1EF7
:1080B000122A01D814233B60316804F0FDF92168CD
:1080C00004F0FAF9296804F0F7F9396804F0F4F9D2
:1080D0004146142242F20900FFF7F0FE42F2090085
:1080E0000DF10701FFF7D6FE9DF90700BDE8FC8101
:1080F000541B002038B5074B42F205040546996829
:1081000020460022FFF7DAFE20462946BDE8384027
:10811000FFF7C0BE541B00202DE9F34186461448EA
:108120000D46866871461F4602ACFF2306F1090022
:1081300004F8013D904604F0BFF9294604F0BCF96B
:1081400040F20125414604F0B7F90C223146284699
:10815000FFF7B4FE28462146FFF79CFE0021384673
:108160000A46FFF7A1FE9DF80700BDE8FC8100BFAD
:10817000541B00202DE9F341864616480C468668BC
:108180007146984602AD4FF0FF3306F10A0045F8FC
:10819000043D174604F090F90C2104F08DF92146B6
:1081A00004F08AF9394604F087F94146224606F17F
:1081B0001A0009F033F8902031461022A3B2FFF7DD
:1081C000A5FE40F202202946FFF764FE0198BDE8B3
:1081D000FC8100BF541B002037B50B4B40F2072534
:1081E0000446996800222846FFF768FE284669463B
:1081F000FFF750FE9DF803009DF804102070617099
:108200009DF800003EBD00BF541B002037B50D4A4D
:10821000034695680C4605F10900194604F04CF92F
:10822000214640F2032404F047F92946082220465B
:10823000FFF744FE20460DF10601FFF72BFEBDF8C7
:1082400006003EBD541B00202DE9F0430023CA5C0C
:10825000C2540133102BFAD10022334B467B9918BC
:1082600091F8018004789F19F97A88EA0405847BE3
:1082700085EA01081D194178EF7A90F80CC04F404B
:10828000C17B80F810805D1895F80B908578634469
:1082900089EA050593F80B90C378477489EA0303CC
:1082A00090F80490FFB288EA090890F80590857468
:1082B00087EA090790F80690EDB285EA090590F87B
:1082C0000790C374DBB283EA090390F8089080F842
:1082D00014805FFA88F888EA090890F809904775D1
:1082E000FFB287EA090790F80A908575EDB285EA32
:1082F000090590F80B90C375DBB283EA090388EA9D
:108300000C0C7E406C405940013280F81880477652
:108310008576C37680F81CC046778477C1771030A5
:108320000A2A9AD1BDE8F0832222010810F0800FBA
:108330004FEA400018BF80F01B00C0B27047000039
:108340002DE9F04F037891F8A0A004468AEA030AC9
:1083500080F800A091F8A1204078A77882EA000573
:10836000657091F8A260E07886EA0703A37091F83F
:10837000A32097B0059582EA0005E57091F8A490D6
:108380002679069389EA060984F8049091F8A57085
:108390006379079587EA0302627191F8A600A579CF
:1083A000E37980EA0506A67191F8A7700C9287EA36
:1083B000030B84F807B0227A91F8A880607A88EAE3
:1083C000020884F8088091F8A970089647406772FF
:1083D00091F8AA50A67AE07A85EA0603A37291F88A
:1083E000AB20267B82EA0005E57291F8ACC00993C8
:1083F0008CEA060C84F80CC091F8ADE0637BA27B9C
:108400008EEA030E84F80DE00D9591F8AE50E07BF6
:108410005540A57391F8AF204B4B4240E2739A440C
:1084200091F890009AF80B6199444640267091F8B3
:10843000940099F80BA198448AEA0006267191F8F5
:10844000980098F80B919C4489EA000626729CF8E3
:108450000BA191F89C009E448AEA00062673DF195E
:108460009EF80B8197F80BC191F8910091F89D60EF
:1084700088EA00098CEA060060730C9FDDF814A0FE
:10848000DE1996F80B0191F89970DDF8208080EAEA
:108490000706667203EB0A0091F8956090F80B717D
:1084A00084F8019087EA0600607103EB0800DDF8AC
:1084B00018E090F80B91099803EB0E0703EB000E00
:1084C0009EF80BC191F8920091F89A6097F80B71A1
:1084D0008CEA000A77405D1991F89E6084F802A04A
:1084E00091F8960095F80B81A772079F88EA00051E
:1084F00089EA0606A673A571DE1996F80B0191F8B4
:108500009F5003EB0B0791F89360454097F80B01E0
:108510009A1880EA06070D98E7701E1896F80B71F6
:1085200091F897004FF0090B87EA0006E67191F881
:108530009B3092F80B71E57387EA0300E0720D46F9
:10854000CDF840B002E000BF2222010894F800906C
:10855000A77887EA0900FFF7E9FEFFF7E7FE94F83E
:108560000180E678824686EA0800FFF7DFFEFFF723
:10857000DDFE8AEA070380EA080227797040A679BF
:108580008AEA09015FFA80F886EA07005FFA82FB4F
:108590005FFA83FA5FFA81F903970296FFF7C6FE46
:1085A000FFF7C4FEE6796779014686EA0700049181
:1085B000FFF7BCFEFFF7BAFE039B049A94F808C0CD
:1085C00082EA0301CBB2029947404A40A17A704047
:1085D000C6B2059381EA0C00D3B20291CDF804C073
:1085E00006930796FFF7A2FEFFF7A0FE637AE67AEE
:1085F000024686EA030003930492FFF797FEFFF713
:1086000095FE049ADDF804C0039B82EA0C015FFA30
:1086100081FC80EA0301CBB2029909934A40D3B2AC
:10862000CDF820C00A9394F80CC0A17B7040C6B26C
:1086300081EA0C000291CDF804C00B96FFF776FE9C
:10864000FFF774FE637BE67B024686EA0300039332
:108650000492FFF76BFEFFF769FEDDF804C0049A91
:10866000039B82EA0C015FFA81FC80EA0301CBB232
:10867000029970404A40C6B288EA0A018BEA0900B2
:108680000D93D3B20E930291CDF830C00F9681EACC
:108690000006FFF74BFE89EA000286EA020C5FFA49
:1086A0008CFC8AEA0B0084F800C0CDF804C0FFF708
:1086B0003DFE8BEA000386EA030B02995FFA8BFC0E
:1086C00084F801C00846CDF844C0FFF72FFE8AEABF
:1086D000000286EA020A5FFA8AFB88EA090084F847
:1086E00002B0CDF848B0FFF721FE88EA0000DDF8BF
:1086F00018900599079A4640FFB2F6B282EA090837
:1087000087EA0100E670139688EA0006FFF70EFE7E
:10871000059B584086EA0001CAB24846227178405B
:108720001492FFF703FE474086EA0703D8B215907C
:1087300060714046FFF7FAFD89EA0001059B86EA71
:1087400001020798D7B25840A7710697FFF7EEFDD0
:108750000799089A48404640F6B20A9F0596E67186
:1087600009980B9E50407E4086EA0007FFF7DEFD29
:10877000DDF820A08AEA000387EA030C5FFA8CF890
:1087800084F8088009990A984840FFF7CFFD099AB4
:10879000504087EA000B5FFA8BF9304684F8099065
:1087A000FFF7C4FD0A9E524686EA000387EA0301EA
:1087B0000B985FFA81FB504084F80AB0FFF7B6FDD2
:1087C000DDF82CA00E998AEA00000C9E47400F9B12
:1087D0000D98FFB24B407040E77283EA000A0293A3
:1087E000FFF7A4FD0C9A0D9B50408AEA00060E98F4
:1087F000F6B226735840FFF799FD0D99029B81EA66
:1088000000028AEA0200C1B2617318460391FFF7C1
:108810008DFD0E9A0C9B50408AEA00010F98CAB257
:10882000A27358400492FFF781FD0F99514B4840C5
:108830008AEA000C5FFA8CFADDF804C084F80FA015
:1088400003EB0C0295F8800092F80B11DDF850C094
:1088500081EA0002227003EB0C0195F8840091F884
:108860000B219E1982EA000103EB0802217195F8A1
:10887000880092F80BC196F80B218CEA0001217256
:1088800095F88C00039E82EA000121739A1995F8ED
:10889000811092F80B0103EB090680EA010295F8BA
:1088A0008D0096F80B11DDF844C081EA0006159999
:1088B0006673581890F80B6195F88910DF1986EAED
:1088C0000100607203EB0C0695F8850096F80B1119
:1088D0006270129A81EA000666719918DDF818C074
:1088E00095F88A6091F80B0103EB0C0295F88E1055
:1088F000704092F80B6103EB0B02714092F80BC1D0
:1089000095F882608CEA0602049EA2709A1992F889
:108910000B6195F886205640A671A0721398A1733A
:10892000191895F88F2091F80B61DDF814C072408A
:1089300003EB0C0695F8831096F80B01534448405E
:10894000E07095F8871097F80B014840E07195F8B2
:108950008B0093F80B11E273109A81EA0003511E09
:10896000103D11F0FF00E37210907FF4EFAD17B0EF
:10897000BDE8F08F2222010838B5054C0546204697
:10898000FFF762FC28462146BDE83840FFF7D8BC17
:10899000601A0020034610210C200022FFF7BCBB08
:1089A000034610210C200022FFF7E4BB38B5054632
:1089B0000E4CE36A4BB108F011F8E36A0360002043
:1089C000E06208F00BF8006838BD2846FFF750FA5F
:1089D00040B9228E91B20029EAD0238E5A1E91B25C
:1089E000218638BD4FF0FF3038BD00BF541B00203A
:1089F000F7B5034614480D4686681946174602AC7B
:108A00004FF0FF3206F1090044F8042D03F054FD45
:108A1000294603F051FD41F20105394603F04CFDB2
:108A20000C2231462846FFF749FA21462846FFF72F
:108A300031FA07F0D3FF0199016008460021FEF7E3
:108A40001FFF0198FEBD00BF541B0020F7B505466F
:108A500010484FF0FF33876802AC294641F20B06FD
:108A600007F1090044F8043D03F026FD04223946CD
:108A70003046FFF723FA21463046FFF70BFA07F09E
:108A8000ADFF0199016028460121FEF7F9FE01982A
:108A9000FEBD00BF541B002037B5034613484FF0FE
:108AA000FF3284680D4604F109001946019203F073
:108AB00003FD082103F000FD082103F0FDFC002365
:108AC000E95CC1540133082BFAD11422214641F24A
:108AD0000700FFF7F3F901A941F20700FFF7DAF900
:108AE00007F07CFF019A026010463EBD541B002037
:108AF0002DE9FF411D46314B8646D3F808800F46CD
:108B000008F10900714616460A9C03F0D5FC1421B1
:108B100003F0D2FC142103F0CFFC142103F0CCFCB1
:108B2000142103F0C9FCD4F1010138BF002103F086
:108B3000C3FC0FB1396800E0394603F0BDFC0EB14B
:108B4000316800E0314603F0B7FC0DB1296800E060
:108B5000294603F0B1FC74B1216839B9636841F268
:108B600087329342DCBF41F28833636003F0A4FC98
:108B7000616803F0A1FC2C22414641F20800FFF796
:108B80009DF941F208006946FFF784F9009B002B2C
:108B900009DB0FB1019838600EB1029A326045B11D
:108BA0000399296005E007F019FF00994FF0FF33A2
:108BB0000160184604B0BDE8F08100BF541B0020DE
:108BC0002DE9FF419846154B07469D6814460E4611
:108BD00005F10900394603F06FFC214603F06CFCF7
:108BE000414603F069FCBDF830400C22294620467E
:108BF000FFF764F9204601A9FFF74CF90298002815
:108C000004DD30460A990B9AFFF74EF907F0E6FEAD
:108C100002990160084604B0BDE8F081541B0020B1
:108C20001FB500240094019441F204040294FFF75C
:108C3000C7FF04B010BD00002DE9F04F89B00391CB
:108C400014469B46139E149D0290FFF7AFFEDDF87D
:108C500008C0002857D12D4B9A6B511C9963D3F84B
:108C60000890812D09F10A0307D0832D0AD104F160
:108C7000080A09F12208182704E009F11A08102748
:108C8000064612906146184603F016FC391F03F0A1
:108C900013FC214603F010FC594603F00DFC832D14
:108CA00005D1514603F008FC082103F005FC002221
:108CB000A24205DA0398815C08F802100132F7E756
:108CC000002CA8BFA044832D0ED0129AB6B20092F9
:108CD0000196E8B249463A46A3B2FFF700F9832D60
:108CE0000BD141F20F000AE00020B042EDDA1299F8
:108CF0000B5C08F800300130F7E741F2030005A9EA
:108D0000FFF7C8F8204609B0BDE8F08F541B0020DB
:108D10001FB500240094019481240294FFF78CFF76
:108D200004B010BD1FB5069C0094079C01948324D9
:108D30000294FFF781FF04B010BD0000202A73B534
:108D400003460E46144622D8124A1946956805F184
:108D5000090003F0B1FB082103F0AEFB214603F04C
:108D6000ABFB0022A24203DAB15C81540132F9E785
:108D700004F10C032946DAB241F21100FFF79EF824
:108D800041F2110001A9FFF785F8019801E04FF0C9
:108D9000FF307CBD541B0020024B01225A805860DA
:108DA000FEF78EBE541B002010B5084CE160226116
:108DB0006361029B0399E361049A059B21626262ED
:108DC000A362A061012084F8400010BD541B002064
:108DD00070B5224C054622480023A363E363238039
:108DE00023866386A386E386E36263806360A06074
:108DF0001C4800F0B1FAE1698847A26A06460120E2
:108E000090470EB3E16988470028FBD1134C002D31
:108E100014BF02250025A16801224D724FF4804045
:108E2000FFF74CF800214FF48040FFF733F8A168BA
:108E3000002244F20B00FFF741F844F20B0000213E
:108E4000BDE87040FFF726B8E36998470028FBD0DB
:108E5000E06980470028FBD1D8E700BF541B002001
:108E6000BC1B0020998D000838B5094C0020A36A6E
:108E700098472546E869064C80470028FAD0A16843
:108E800009B10022A260BDE8384000F079BA00BF05
:108E9000541B00202DE9F04F83462F4885B0D0F8B1
:108EA0000890144600259A4688464FF0FF331C214F
:108EB00009F1090001930F9E0E9F0295ADF80C5029
:108EC00003F0FAFA214603F0F7FA594603F0F4FAF0
:108ED00004F1100103F0F0FA314603F0EDFA2946EF
:108EE00003F0F3FABAF1000F08D01AF80520425542
:108EF0000135062DF9D10630002207E0534602AABB
:108F0000995CC1540133062BF9D1F4E7A24204DA8B
:108F100018F8021081540132F8E7002CA8BF00199C
:108F20003EB100232FB1B34203DAFA5CC2540133DD
:108F3000F9E71C34A319DAB249460120FEF7BEFF57
:108F400001A90120FEF7A6FF07F048FD0199016085
:108F5000084605B0BDE8F08F541B0020F7B5034666
:108F60000F480E4685681946174602AC4FF0FF328F
:108F700005F1090044F8042D03F09EFA314603F090
:108F80009BFA394603F098FA29460C220420FEF792
:108F900095FF04202146FEF77DFF0198FEBD00BF2E
:108FA000541B00202DE9F04F8346714885B0D0F85E
:108FB00008900D4614465946002209F109009A46C8
:108FC0000E9F0F9E0292ADF80C2003F075FABBF1D4
:108FD000030F00F2BE80DFE80BF0022F767614213B
:108FE00003F06AFA214603F067FA002103F06DFAF4
:108FF000BAF1000F07D000221AF802108154013292
:10900000062AF9D106E0534602A95A5CC25401333C
:10901000062BF9D10630394603F04EFA4FF000081E
:10902000A04506D015F8083000F8083008F101080E
:10903000F6E708F118008AE0202103F03DFA214606
:1090400003F03AFA002103F040FABAF1000F07D01A
:1090500000221AF8021081540132062AF9D106E0E2
:10906000534602AA995CC1540133062BF9D1394603
:10907000063003F021FA04F10C0103F01DFA314629
:1090800003F01AFA109903F017FA0022A24203D053
:10909000AF5C87540132F9E7001900220421129DC8
:1090A0008718AD180023B34205D015F803E007F880
:1090B00003E00133F7E701391A44F0D104F1240C3D
:1090C0000CEB830043E0282103F0F6F9214603F07E
:1090D000F3F9002103F0F9F9BAF1000F07D00022EB
:1090E0001AF8021081540132062AF9D106E05346DB
:1090F00002A95A5CC2540133062BF9D13946063015
:1091000003F0DAF9314603F0D7F9109903F0D4F9F6
:10911000119903F0D1F904F1080103F0CDF9139985
:1091200003F0CAF90021A14203D06A5C4254013124
:10913000F9E70019002313998B4204D0129AD15CED
:10914000C1540133F7E704F12C0808EB03001FFAC0
:1091500080F849465FFA88F20520FEF7AFFE052049
:1091600001A9FEF797FE019805B0BDE8F08F00BF9A
:10917000541B002037B50B4B01469D6802AC05F12E
:10918000090003F099F94FF0FF3044F8040D294627
:1091900004220620FEF792FE06202146FEF77AFE04
:1091A00001983EBD541B002037B548F2080248F232
:1091B000080102408A42034613490BD10020934222
:1091C00081F840001FD023F4004424F0080545F442
:1091D000004302E0012081F840000B494FF0FF32CC
:1091E0008D6802AC194605F1090044F8042D03F01E
:1091F00063F9294604220820FEF760FE0820214674
:10920000FEF748FE01983EBD541B002073B50C4B81
:1092100001469D684FF0FF3602AC05F1090001964A
:1092200003F04AF944F8046D294604220A20FEF7A7
:1092300045FE0A202146FEF72DFE01987CBD00BFA9
:10924000541B002007B50D4A4FF0FF33019391687E
:1092500090B154234370037083704B7242788A72CA
:1092600080780322C8720C20FEF728FE0C2001A98A
:10927000FEF710FE019800E018460EBD541B0020BA
:109280002DE9F041314886B0FFF784FB0546002800
:1092900058D12F4E2A460D2043213346FEF73CFF7E
:1092A000054600284ED13778284907F1030808EB16
:1092B00006042046FFF760FB3378F6187078102814
:1092C00004D904F110002149FFF756FBE17F204A41
:1092D00021B112F808301F2B04D101E012F8083038
:1092E000013400E02023107811188A78032A29D845
:1092F000DFE802F0020E1919002001250095019007
:10930000029003900490059012493A46034616E0F5
:1093100001208DE809000023029303930494059330
:109320000C493A460BE0012018211E2202258DE847
:10933000270008490593049403203A460023FFF7C9
:1093400031FE0546284606B0BDE8F081981B002096
:10935000101B0020111B002008B5064B00221860CE
:10936000054906489A601961DA80DA609A80036AD2
:10937000984708BDA81B0020BC1F0020541B0020DC
:1093800008B5044B1A690AB10020186102494B6AFA
:10939000984708BDA81B0020541B0020024B4FF427
:1093A00080725A60704700BF00E100E008B5074BCB
:1093B0004FF48072C3F8842000F076FE0449022046
:1093C0000A6988600B68501D984708BD00E100E0FD
:1093D000A81B002070B50646002014460D4600F07C
:1093E00053FE012EA4B207D130462946224600F092
:1093F000D3FD0020124907E0124B012019692246D3
:1094000000F0CAFD00202946224600F0C5FD0E48A6
:109410000221012201F037FD012000F035FE0A484B
:1094200001F039FD0028FAD1084801F034FD002888
:10943000FAD10748802102F000F80028F9D170BD68
:1094400068020020A81B002058000240440002408F
:109450000038004003460A4601201946FFF7BABF0C
:1094600070B50646002014460D4600F00DFE012E94
:10947000A4B207D130462946224600F08DFD0020D7
:10948000104907E0104B01201969224600F084FDC5
:1094900000202946224600F07FFD012000F0F4FD67
:1094A0000A4801F0F8FC0028FAD1094801F0F3FC61
:1094B0000028FAD10748802101F0BFFF0028F9D128
:1094C00070BD00BF68020020A81B002058000240A9
:1094D000440002400038004003460A460020194676
:1094E000FFF7BEBF38B504460D4600F0F9FE322046
:1094F00000F08AF9214604220020FFF7B1FF322054
:1095000000F082F90020211D2A1FFFF7A9FF034B5D
:1095100002229A6000F0C8FD002038BDA81B002080
:10952000F8B501F00106044686F001000D1801238C
:1095300000262370C5F307221B4BE670267162706C
:10954000A57005319D68081886B215B99A68012A78
:10955000FCD19968144D012907D120463146FFF707
:10956000C1FFA8680228FCD11CE0AF68022FFCD123
:109570000E48802101F061FF0028F9D10C4DE86907
:1095800080472F460028F9D0074D0323AB60EC60DD
:10959000AE8000F0A5FEFA6990470028FBD0A968CC
:1095A0000229FCD10020F8BDA81B00200038004093
:1095B000541B002070B5184E35696B79022B08D00A
:1095C000042B25D1287A441E14F0010F18BF04463D
:1095D00014E0681D032102F07DFFB0F5806F0446A2
:1095E00008DB05F10A004FF480610724FFF732FF22
:1095F000B4600EE0C30701D4441C00E024B105F1BF
:109600000A00A1B2FFF726FF034908228A6000E0A2
:109610000024204670BD00BFA81B0020024B012083
:1096200019690A22FFF7D6BEA81B002008B5FFF76C
:10963000C1FF18B9BDE80840FFF7B8BE08BD00007B
:1096400070B5364C4FF40030266901F027FC054612
:109650004FF4005001F022FCA368062B0BD1002D23
:109660005BD0002859D04FF4083001F025FCBDE84C
:109670007040FFF7DBBFA16807291BD100284CD041
:109680004FF4083001F018FC0321701D02F022FF96
:10969000A0F58064A1B2214CCA0758BFA0F2FF31E7
:1096A000206958BF89B200F20A40FFF7D3FE0823B1
:1096B000A36070BDA268082A09D100282DD04FF4FC
:1096C000083001F0F9FBBDE87040FFF76FBEA068FD
:1096D000052811D1002D20D01148802101F0ADFEC8
:1096E0000028F9D14FF4083001F0E6FB00F0DCFC73
:1096F0000A4A0221916070BDA368042B0DD165B1A7
:10970000A088E2680521A0F58063A16002F5806071
:1097100099B2BDE87040FFF7DFBE70BDA81B002006
:109720000038004008B5174BD8698047002827D17A
:10973000154B9A6812B90120986008BD99680229F2
:1097400007D106229A6000F0CBFDBDE80840FFF784
:1097500065BF9A68032A13D19A88B2F5806F06D83C
:1097600005219960D968BDE80840FFF733BE0420A1
:109770009860D8684FF48061BDE80840FFF7ACBE40
:1097800008BD00BF541B0020A81B0020BFF34F8F53
:10979000054A064BD16801F4E06040EA0301D1605C
:1097A000BFF34F8FFEE700BF00ED00E00400FA05B5
:1097B0004FF4407001F08CB90A4B4FF47A701A687C
:1097C000094BB2FBF0F109484A1EF0215A6080F8BB
:1097D0002310002207219A601960D02380F82330DB
:1097E000704700BFBC02002010E000E000ED00E088
:1097F00082B00190019A034B1A6018680028FCD1CE
:1098000002B07047D023002013B50749074B0190E1
:109810000C68074901985A68B4FBF1F100FB01207C
:109820005A689042FCD81CBDBC020020001000E029
:1098300040420F0030B54FF4003085B001F098FB86
:1098400008204FF40033002501248DF80D006844F2
:1098500002938DF80C508DF80E4001F037FB032178
:1098600001A88DF804108DF805108DF806508DF8BC
:10987000074001F037F9042329220DEB03008DF88E
:1098800004208DF805308DF806508DF8074001F062
:1098900029F9022001F0ACFC50B1022001F0B2FC29
:1098A00001F064FD24204FF6FF7101F025FA27E056
:1098B000242001F02FFA4AF2A551884201D101F08B
:1098C00083FC012001F0B6FC412001F001FD0028DD
:1098D000FAD04FF4807001F0BDFC012001F0C2FC11
:1098E00001F044FD01F038FD0320012101F004FDE9
:1098F00001F032FD47F6FF7001F01EFD01F02CFD76
:1099000005B030BD082812D8012907D10A4B0B4AEF
:1099100053F8201032F8100008610AE049B9064BEC
:10992000064A53F8201032F81000486101E0FF2386
:1099300000E0002358B27047700200203024010874
:1099400037B50E4D044605EB80031869012101F07F
:109950009BFC35F814000A4B1021ADF804008DF87B
:109960000710032253F8240001A98DF8062001F006
:109970007FFB20460021FFF7C5FF3EBD30240108D4
:109980007002002070B5012188B04FF4006001F032
:109990007BFC314B42F210701C686326B4FBF0F183
:1099A0004A1E2E4C01A895B201F096FE01A801F0C6
:1099B00093FE01A9ADF8045020460025ADF80860DB
:1099C000ADF80A50ADF8065001F03EFD04A801F0D4
:1099D0008CFE022060230126ADF8180004A9204661
:1099E000ADF81030ADF81260ADF81650ADF81C505F
:1099F00001F074FD2046294601F0B0FE204604A97E
:109A000001F0B0FD2046294601F0B0FE204604A931
:109A100001F0ECFD2046294601F0B2FE204604A9E3
:109A2000ADF81050ADF81260ADF81650ADF8185002
:109A300001F01EFE2046294601F0AAFE20463146CE
:109A400001F080FE2046314601F059FE20463146A5
:109A500001F061FE08B070BDBC020020002C014086
:109A6000104930B58C8DC0F30743A2B2551C5D433D
:109A7000FF22B5FBF2F40C4BA5B29D808C8DC0F398
:109A80000725A4B201346C43B4FBF2F4A4B2DC8029
:109A9000898DC0B289B201314843B0FBF2F291B274
:109AA000598030BD002C0140F4190020104930B518
:109AB0008C8DC0F30743A2B2551C5D43FF22B5FB5A
:109AC000F2F40C4BA5B29D818C8DC0F30725A4B296
:109AD00001346C43B4FBF2F4A4B2DC81898DC0B2D2
:109AE00089B201314843B0FBF2F291B2598130BDE5
:109AF000002C0140F419002037B50F4D044605EB4A
:109B00008003186B012105EB440501F0BDFBB5F89E
:109B10004000ADF804000CB9102100E01821074BFB
:109B20008DF8071003EB84040322206A01A98DF845
:109B3000062001F09DFA3EBD30240108700200208D
:109B400010B1E7281BD105E00D4A4FF40051106A0F
:109B5000016170470B4B0C4A197C39B9988881B266
:109B60001187D88881B291875B8806E0988981B295
:109B70001187D88981B291875B899BB293867047A0
:109B800070020020F4190020002C0140024B00223A
:109B9000E7201A74FFF7D4BFF419002038B1E72882
:109BA0000BD1064B00221A879A879A8605E0044853
:109BB0004FF40053016A4B6170477047002C01401D
:109BC00070020020024B0122E7201A74FFF7E6BF63
:109BD000F419002010B1E72827D106E0134B196AC9
:109BE000C86880F40052CA607047114A114B117C5A
:109BF00061B9198F9088414088B21887998FD088B1
:109C0000414088B29887998E52880BE0198F9089CD
:109C1000414088B21887998FD089414088B298878F
:109C2000998E52894A4092B29A86704770020020FB
:109C3000F4190020002C0140E7287FD14049414B16
:109C4000087C414A48BB898888B208B918700DE081
:109C5000118F88B208B9012007E0118F928D88B268
:109C600091B24A1C904201D1FF201870344B374802
:109C7000D98889B269B1344A938F99B209B901215F
:109C800007E0938F928D99B293B25A1C914201D101
:109C9000FF2101702A48438828E0898988B208B9E1
:109CA00018700DE0118F88B208B9012007E0118FFC
:109CB000928D88B291B24A1C904201D1FF20187057
:109CC0001F4B2248D98989B269B11F4A938F99B233
:109CD00009B9012107E0938F928D99B293B25A1C72
:109CE000914201D1FF2101701548438998B2184B68
:109CF00068B1154A918E88B208B9012007E0918EAB
:109D0000928D88B291B24A1C904201D1FF20187006
:109D10000D4B0C491A8F91F90000821891B20B4A31
:109D2000198792F90010988F081882B208499A870B
:109D300091F90020988E101881B29986704700BF63
:109D4000F4190020DC230020002C0140CC2300204B
:109D5000BC23002073B5104C0E4604EB400494F86D
:109D60004C10054694F8480001F00EFAB4F8504043
:109D7000204601F0E7F809480023451995F830100E
:109D8000684600948DF804308DF805108DF8066053
:109D900001F09CF87CBD00BF302401087002002057
:109DA000F7B5224E8700F3190546586D0C4640F072
:109DB0000100012101F068FA1D4B06EB45065A1916
:109DC00092F83210B6F85C0002AADF198DF8031081
:109DD00022F8080D6946786B01F04AF9012C24D16C
:109DE0001021002213481B2701F0A3FC05238DF846
:109DF000047001A800278DF805308DF806708DF8E5
:109E0000074000F06FFEB6F8601006208DF80500E0
:109E100001A88DF804108DF806708DF8074000F049
:109E200061FE28462146FFF795FFFEBD302401085C
:109E300070020020002C01401A4B1B49DA6810B553
:109E400042F080700024D8604C600B684FF0C05026
:109E500043F001020A60012101F022FA012001F021
:109E6000ADF9FFF7A5FC0120014601F00DFAE0B2C3
:109E70000134FFF765FD082CF9D1FFF783FD0020C1
:109E8000FFF73AFE0120FFF737FE0220FFF734FE0E
:109E90000320FFF731FE00200121BDE81040FFF74D
:109EA0007FBF00BFF0ED00E0001000E0054A064B68
:109EB00002EB800103EB4002486BB2F85C1001F04A
:109EC00027B900BF7002002030240108024B03EBC9
:109ED0004000418A88B27047F4190020024B0022EA
:109EE00003EB400042827047F419002030B508208F
:109EF00087B0012101F0C8F9254C4FF480400121C1
:109F000001F0CEF918204FF4005301258DF803001D
:109F100069462046ADF800308DF8025001F0A8F8EF
:109F20004FF400412046ADF80010694601F0A0F85A
:109F30004FF48042042320466946ADF800208DF896
:109F4000033001F095F80020ADF804004FF4827161
:109F5000ADF80800ADF80A00ADF81200A4F55444BD
:109F600007204FF400722023ADF80610ADF814005E
:109F700001A92046ADF80E20ADF81030ADF80C5018
:109F800001F022FA2188034B8AB21A8007B030BD53
:109F9000000C0140E023002070B5044601208CB085
:109FA0000E460146154601F063F9124B002080224F
:109FB0004FF44051012C01930296059006920790B0
:109FC000089009900A910B9006D103900A480495D5
:109FD00000F0B6FE084807E04CB910230748039389
:109FE000049500F0ADFE054801A900F021FF0CB07A
:109FF00070BD00BF0C3800404400024058000240D1
:10A0000073B50F230124002501A88DF804308DF8C5
:10A0100005508DF80650174E8DF8074000F062FD90
:10A02000FFF764FF20462A461349FFF7B5FF28468D
:10A030002A461249124DFFF7AFFF30460221224651
:10A0400000F021FF28462146224601F0E8F9224689
:10A050002846022101F0E3F92846214601F0D3F910
:10A060002146084800F004FF3046214600F000FF7A
:10A070007CBD00BF58000240BC1F0020BC1B00205C
:10A08000003800404400024010B504462146044810
:10A0900000F0EEFE03482146BDE8104000F0E8BEA7
:10A0A000440002405800024002484FF4805101F041
:10A0B00035B800BF000C014008B54FF400610248FC
:10A0C00001F026F808BD00BF000C014030B50920A2
:10A0D00085B0012101F0D8F84FF4006448236946A7
:10A0E00014488DF80330ADF8004000F0C1FF0B219B
:10A0F000012001F049F8204600F024FF0C200294D2
:10A10000002501248DF80D0002A88DF80C508DF863
:10A110000E4000F0DBFE282101A88DF804108DF818
:10A1200005408DF806508DF8074000F0DBFC05B0C7
:10A1300030BD00BF000C01401FB52823002401A83A
:10A140008DF804308DF8074000F0CCFC4FF400602F
:10A15000029002A88DF80E4000F0B8FE1FBD00006E
:10A1600020B105484FF4807100F0D8BF02484FF489
:10A17000807100F0D5BF00BF000C014013B508206E
:10A1800001210F4C01F080F8032010214FF480537F
:10A190008DF806008DF80710204601A9ADF80430AF
:10A1A00000F066FFFFF780FF4FF48072204601A9A0
:10A1B000ADF8042000F05CFF0020FFF7D1FF1CBDCC
:10A1C000000C014010B50B4C238823F04000010423
:10A1D0000A0C2280FFF768FF074B188881B20748F6
:10A1E00041F040024FF400712280BDE8104000F0C1
:10A1F00097BF00BF00380040DE230020000C014064
:10A2000002484FF4007100F089BF00BF000C01400C
:10A2100070B5082086B0012101F036F82E4C0121DE
:10A220004FF4804001F03CF818204FF40053012512
:10A230008DF8030069462046ADF800308DF80250D5
:10A2400000F016FF4FF40041ADF8001020466946BB
:10A2500000F00EFF04264FF4804220466946ADF818
:10A2600000208DF8036000F003FF102003236946EF
:10A270004FF400768DF8030020468DF80230A4F5E7
:10A280005444ADF8006000F0F3FEFFF7B9FF002181
:10A2900007202023ADF804104FF48272ADF80810A7
:10A2A000ADF80A10ADF80C10ADF81210ADF81400AE
:10A2B00001A92046ADF80620ADF81030ADF80E60CB
:10A2C00001F082F82188054B8AB2204629461A807F
:10A2D00001F099F806B070BD000C0140DE230020AB
:10A2E00010B50B4C238823F0400001040A0C228097
:10A2F000FFF786FF074B188881B2074841F04002FC
:10A300004FF480512280BDE8104000F009BF00BF2B
:10A3100000380040E0230020000C014007B5082071
:10A32000012100F0B1FF032014214FF480638DF868
:10A3300006008DF80710034801A9ADF8043000F0BD
:10A3400097FE0EBD000C0140002008B500F062FF32
:10A350004FF400000121BDE8084000F0A1BF00005B
:10A36000014B03221A607047241A0020044B054851
:10A370009A7A0AB1052100E001210160704700BF0F
:10A38000F4230020241A002007B5022014238DF89E
:10A3900005000021012201A88DF804308DF8061077
:10A3A0008DF8072000F09EFB0EBD000020B105488F
:10A3B0004FF4806100F0B4BE02484FF4806100F0B9
:10A3C000ADBE00BF000C0140094B987D70B109493A
:10A3D000094B0A8809489A870188094AD987108851
:10A3E0000849A3F840000A88A3F84220704700BF3C
:10A3F000F4190020004C000870020020024C0008F4
:10A40000044C0008064C000810B5194B987D002834
:10A410002DD000F0B3FD342000F0C4FD154800F04D
:10A4200009FE042822D1144C1248A18F00F0E6FD49
:10A4300004281AD11148E18F00F0E0FD042813D15F
:10A440000F48B4F8401000F0D9FD04280BD10D4896
:10A45000B4F8421000F0D2FD042803D1BDE810404A
:10A4600000F098BDFEE7FEE7FEE7FEE7FEE710BD61
:10A47000F4190020004C000870020020024C000873
:10A48000044C0008064C000838B505464FF0FF1094
:10A49000FFF7E6FAE720FFF753FB0C4B0024A3F885
:10A4A0004240FFF7B1FF0A4820228562C261046280
:10A4B000074C216AE369994207D205EB013000F0AD
:10A4C000F2F9206A421C2262F2E738BD70020020D5
:10A4D000F41900202DE9F04106460F464FEA910895
:10A4E0000024444516D056F824201748174D027012
:10A4F000C2F30721C2F30743EA62120E4170C27031
:10A50000A96A0422837000F065F9A86A0134011D6C
:10A51000A962E6E7BB0711D056F824300A480B4A77
:10A52000C3F307214170C3F30741D3620370817005
:10A530001B0E916A0422C37000F04CF9E720BDE8BD
:10A54000F041FFF747BB00BFD8230020F4190020DB
:10A5500008B5074B0524A3F84040FFF755FF282016
:10A56000214600F0C9FB0020FFF720FFFFF70EF99E
:10A57000700200204FF480514FF4937200F07DB8C8
:10A580004FF400514FF4197200F077B8034BB3F851
:10A590004200421E514251EB0200704770020020FF
:10A5A000024B0022A3F84220FFF72EBF70020020CA
:10A5B00070B50E46054600F0BDFBB3082C461A46A2
:10A5C000013A0434511C114905D054F8040C90FA96
:10A5D000A0F00860F4E705EB8303086890FAA0F1A7
:10A5E00006F003069E19B3420ED013F8014B082261
:10A5F000614011F0010F4FEA510416BF0449214692
:10A600006140013AF5D1EEE7C84370BD0030024029
:10A610002083B8ED10B504460A48022100F00DFF72
:10A620000028F9D00748214600F002FF0548012123
:10A6300000F003FF0028F9D0024800F0FBFEC0B292
:10A6400010BD00BF0038004070B5FFF7BBFD9F2074
:10A65000FFF7E0FFFF20FFF7DDFF0446FF20FFF7D5
:10A66000D9FF0546FF20FFF7D5FF2D020646FFF76D
:10A67000C7FD45EA0440304370BD70B50C46154631
:10A680000646FFF79FFD0320FFF7C4FFC4F3074012
:10A69000FFF7C0FFC4F30720FFF7BCFFE0B2FFF7EE
:10A6A000B9FF3DB1FF20FFF7B5FF013D06F8010BF3
:10A6B000ADB2F6E7BDE87040FFF7A2BD08B5FFF701
:10A6C00081FD0620FFF7A6FFBDE80840FFF798BD13
:10A6D00008B5FFF777FD0420FFF79CFFBDE80840B1
:10A6E000FFF78EBD08B5FFF793FDFFF7F1FFFFF70A
:10A6F000ABFF104B984202D04C3B984219D1FFF768
:10A7000061FD8020FFF786FFFFF77AFDFFF75AFD16
:10A710005020FFF77FFFFFF773FDFFF753FD012088
:10A72000FFF778FF0020FFF775FFBDE80840FFF74F
:10A7300067BD08BD8D25BF0008B5FFF743FD0520A7
:10A74000FFF768FFFF20FFF765FFC307FAD4BDE8F6
:10A750000840FFF755BD70B50D4616460446FFF795
:10A76000ADFFFFF72FFDAD20FFF754FFC5F3074006
:10A77000FFF750FFC5F30720FFF74CFFE8B2FFF7E4
:10A7800049FF2078FFF746FF6078FFF743FFFFF7A8
:10A7900037FDFFF7D1FFA51C2C4602342B1BF01808
:10A7A00081B289B1FFF70EFDAD20FFF733FF14F83A
:10A7B000020CFFF72FFF14F8010CFFF72BFFFFF738
:10A7C0001FFDFFF7B9FFE8E7FFF71AFDBDE870408E
:10A7D000FFF77EBF2DE9F84F11F0FF0906460D4641
:10A7E00017464FEA12381DD1B8F1000F03D1304699
:10A7F00029463A4651E004465FFA89F2A81B904583
:10A8000004EB000109D020464FF48052FFF7A3FF6C
:10A8100004F5805409F10109EEE74FEA0831701898
:10A82000491939E0C9F10004E4B2B8F1000F0DD1C3
:10A83000D2B2A242DBD902EB09035FFA83F92246C6
:10A84000FFF789FF301961194A4626E0171B224697
:10A85000FFF781FFBFB24FEA1739651934195FFA64
:10A8600089FB5FFA87FAA0460026F3B2291B9B45B5
:10A87000414408D040464FF48052FFF76CFF08F582
:10A8800080580136F1E74FEA093904EB090009EB7A
:10A890000501BAF1000F04D0FAB2BDE8F84FFFF796
:10A8A0005ABFBDE8F88F10B50446FFF707FFFFF762
:10A8B00089FC2020FFF7AEFEC4F30740FFF7AAFE95
:10A8C000C4F30720FFF7A6FEE0B2FFF7A3FEFFF7F1
:10A8D00097FCBDE81040FFF72FBF00003A4B82B055
:10A8E0001A6842F0010018605968384A0A405A60F4
:10A8F000186820F0847121F480321A60186820F4FE
:10A90000802119605A684FF41F0122F4FE000022D2
:10A910005860996000920192186840F48031196083
:10A92000294B1A6802F40030019000994A1C0092E9
:10A93000019818B90099B1F5A06FF1D11B6813F413
:10A94000003218BF012201920198012805D0204B46
:10A950004FF000629A6002B070471E490B6843F0E6
:10A9600010020A60086820F003030B600A68A1F572
:10A97000805342F002000860596859605A685A6072
:10A98000586840F4806159605A6822F47C1058601D
:10A99000596841F4E8125A60186840F080711960F3
:10A9A0001868094A8101FBD5536823F003015160FF
:10A9B000506840F002035360034A516801F00C00F4
:10A9C0000828F9D1C3E700BF001002400000FFF8DB
:10A9D00000ED00E00020024008B50120FFF7E6FC92
:10A9E000064B0749012200201A60186008600549DB
:10A9F0004FF4E0520A801A6008BD00BF405C00407E
:10AA0000445C004018240020064B1A6890B240F0C5
:10AA1000080119601A6890B240F004011960FFF74C
:10AA20009FBC00BF405C004010B5064C4FF6FB7366
:10AA3000226813402360FFF799FC4FF43F402060E9
:10AA400010BD00BF405C00401F4B072810B518BF69
:10AA500018701A781C4C052A33D8DFE802F0030777
:10AA60000C101823FFF7E0FF062202E0FFF7DCFFDF
:10AA70000422227010BD02215970032022E059786F
:10AA80004A1ED0B258705B78EBB9042017E00F4B28
:10AA9000186881B241F010021A600A200523237061
:10AAA000607010BD5878411ECAB25A705B7853B9B5
:10AAB00006484FF6EF7201680A4002600620024B1A
:10AAC00000E00620187010BDE2230020405C00402A
:10AAD00040F0BF60024B40F40031D960704700BFC6
